{
  "contractName": "LipToken",
  "abi": [
    {
      "inputs": [
        {
          "internalType": "string",
          "name": "_name",
          "type": "string"
        },
        {
          "internalType": "string",
          "name": "_symbol",
          "type": "string"
        }
      ],
      "stateMutability": "nonpayable",
      "type": "constructor"
    },
    {
      "anonymous": false,
      "inputs": [
        {
          "indexed": true,
          "internalType": "address",
          "name": "owner",
          "type": "address"
        },
        {
          "indexed": true,
          "internalType": "address",
          "name": "approved",
          "type": "address"
        },
        {
          "indexed": true,
          "internalType": "uint256",
          "name": "tokenId",
          "type": "uint256"
        }
      ],
      "name": "Approval",
      "type": "event"
    },
    {
      "anonymous": false,
      "inputs": [
        {
          "indexed": true,
          "internalType": "address",
          "name": "owner",
          "type": "address"
        },
        {
          "indexed": true,
          "internalType": "address",
          "name": "operator",
          "type": "address"
        },
        {
          "indexed": false,
          "internalType": "bool",
          "name": "approved",
          "type": "bool"
        }
      ],
      "name": "ApprovalForAll",
      "type": "event"
    },
    {
      "anonymous": false,
      "inputs": [
        {
          "indexed": true,
          "internalType": "address",
          "name": "owner",
          "type": "address"
        },
        {
          "indexed": false,
          "internalType": "uint256",
          "name": "id",
          "type": "uint256"
        },
        {
          "indexed": false,
          "internalType": "uint256",
          "name": "dna",
          "type": "uint256"
        }
      ],
      "name": "NewLip",
      "type": "event"
    },
    {
      "anonymous": false,
      "inputs": [
        {
          "indexed": true,
          "internalType": "address",
          "name": "previousOwner",
          "type": "address"
        },
        {
          "indexed": true,
          "internalType": "address",
          "name": "newOwner",
          "type": "address"
        }
      ],
      "name": "OwnershipTransferred",
      "type": "event"
    },
    {
      "anonymous": false,
      "inputs": [
        {
          "indexed": true,
          "internalType": "address",
          "name": "from",
          "type": "address"
        },
        {
          "indexed": true,
          "internalType": "address",
          "name": "to",
          "type": "address"
        },
        {
          "indexed": true,
          "internalType": "uint256",
          "name": "tokenId",
          "type": "uint256"
        }
      ],
      "name": "Transfer",
      "type": "event"
    },
    {
      "inputs": [
        {
          "internalType": "address",
          "name": "to",
          "type": "address"
        },
        {
          "internalType": "uint256",
          "name": "tokenId",
          "type": "uint256"
        }
      ],
      "name": "approve",
      "outputs": [],
      "stateMutability": "nonpayable",
      "type": "function"
    },
    {
      "inputs": [
        {
          "internalType": "address",
          "name": "owner",
          "type": "address"
        }
      ],
      "name": "balanceOf",
      "outputs": [
        {
          "internalType": "uint256",
          "name": "",
          "type": "uint256"
        }
      ],
      "stateMutability": "view",
      "type": "function",
      "constant": true
    },
    {
      "inputs": [
        {
          "internalType": "uint256",
          "name": "tokenId",
          "type": "uint256"
        }
      ],
      "name": "getApproved",
      "outputs": [
        {
          "internalType": "address",
          "name": "",
          "type": "address"
        }
      ],
      "stateMutability": "view",
      "type": "function",
      "constant": true
    },
    {
      "inputs": [
        {
          "internalType": "address",
          "name": "owner",
          "type": "address"
        },
        {
          "internalType": "address",
          "name": "operator",
          "type": "address"
        }
      ],
      "name": "isApprovedForAll",
      "outputs": [
        {
          "internalType": "bool",
          "name": "",
          "type": "bool"
        }
      ],
      "stateMutability": "view",
      "type": "function",
      "constant": true
    },
    {
      "inputs": [
        {
          "internalType": "uint256",
          "name": "",
          "type": "uint256"
        }
      ],
      "name": "lips",
      "outputs": [
        {
          "internalType": "string",
          "name": "name",
          "type": "string"
        },
        {
          "internalType": "uint256",
          "name": "id",
          "type": "uint256"
        },
        {
          "internalType": "uint256",
          "name": "dna",
          "type": "uint256"
        },
        {
          "internalType": "uint8",
          "name": "level",
          "type": "uint8"
        },
        {
          "internalType": "uint8",
          "name": "rarity",
          "type": "uint8"
        }
      ],
      "stateMutability": "view",
      "type": "function",
      "constant": true
    },
    {
      "inputs": [],
      "name": "name",
      "outputs": [
        {
          "internalType": "string",
          "name": "",
          "type": "string"
        }
      ],
      "stateMutability": "view",
      "type": "function",
      "constant": true
    },
    {
      "inputs": [],
      "name": "owner",
      "outputs": [
        {
          "internalType": "address",
          "name": "",
          "type": "address"
        }
      ],
      "stateMutability": "view",
      "type": "function",
      "constant": true
    },
    {
      "inputs": [
        {
          "internalType": "uint256",
          "name": "tokenId",
          "type": "uint256"
        }
      ],
      "name": "ownerOf",
      "outputs": [
        {
          "internalType": "address",
          "name": "",
          "type": "address"
        }
      ],
      "stateMutability": "view",
      "type": "function",
      "constant": true
    },
    {
      "inputs": [],
      "name": "renounceOwnership",
      "outputs": [],
      "stateMutability": "nonpayable",
      "type": "function"
    },
    {
      "inputs": [
        {
          "internalType": "address",
          "name": "from",
          "type": "address"
        },
        {
          "internalType": "address",
          "name": "to",
          "type": "address"
        },
        {
          "internalType": "uint256",
          "name": "tokenId",
          "type": "uint256"
        }
      ],
      "name": "safeTransferFrom",
      "outputs": [],
      "stateMutability": "nonpayable",
      "type": "function"
    },
    {
      "inputs": [
        {
          "internalType": "address",
          "name": "from",
          "type": "address"
        },
        {
          "internalType": "address",
          "name": "to",
          "type": "address"
        },
        {
          "internalType": "uint256",
          "name": "tokenId",
          "type": "uint256"
        },
        {
          "internalType": "bytes",
          "name": "data",
          "type": "bytes"
        }
      ],
      "name": "safeTransferFrom",
      "outputs": [],
      "stateMutability": "nonpayable",
      "type": "function"
    },
    {
      "inputs": [
        {
          "internalType": "address",
          "name": "operator",
          "type": "address"
        },
        {
          "internalType": "bool",
          "name": "approved",
          "type": "bool"
        }
      ],
      "name": "setApprovalForAll",
      "outputs": [],
      "stateMutability": "nonpayable",
      "type": "function"
    },
    {
      "inputs": [
        {
          "internalType": "bytes4",
          "name": "interfaceId",
          "type": "bytes4"
        }
      ],
      "name": "supportsInterface",
      "outputs": [
        {
          "internalType": "bool",
          "name": "",
          "type": "bool"
        }
      ],
      "stateMutability": "view",
      "type": "function",
      "constant": true
    },
    {
      "inputs": [],
      "name": "symbol",
      "outputs": [
        {
          "internalType": "string",
          "name": "",
          "type": "string"
        }
      ],
      "stateMutability": "view",
      "type": "function",
      "constant": true
    },
    {
      "inputs": [
        {
          "internalType": "uint256",
          "name": "tokenId",
          "type": "uint256"
        }
      ],
      "name": "tokenURI",
      "outputs": [
        {
          "internalType": "string",
          "name": "",
          "type": "string"
        }
      ],
      "stateMutability": "view",
      "type": "function",
      "constant": true
    },
    {
      "inputs": [
        {
          "internalType": "address",
          "name": "from",
          "type": "address"
        },
        {
          "internalType": "address",
          "name": "to",
          "type": "address"
        },
        {
          "internalType": "uint256",
          "name": "tokenId",
          "type": "uint256"
        }
      ],
      "name": "transferFrom",
      "outputs": [],
      "stateMutability": "nonpayable",
      "type": "function"
    },
    {
      "inputs": [
        {
          "internalType": "address",
          "name": "newOwner",
          "type": "address"
        }
      ],
      "name": "transferOwnership",
      "outputs": [],
      "stateMutability": "nonpayable",
      "type": "function"
    },
    {
      "inputs": [
        {
          "internalType": "uint256",
          "name": "_fee",
          "type": "uint256"
        }
      ],
      "name": "updateFee",
      "outputs": [],
      "stateMutability": "nonpayable",
      "type": "function"
    },
    {
      "inputs": [],
      "name": "withdraw",
      "outputs": [],
      "stateMutability": "payable",
      "type": "function",
      "payable": true
    },
    {
      "inputs": [
        {
          "internalType": "string",
          "name": "_name",
          "type": "string"
        }
      ],
      "name": "createRandomLip",
      "outputs": [],
      "stateMutability": "payable",
      "type": "function",
      "payable": true
    },
    {
      "inputs": [],
      "name": "getLips",
      "outputs": [
        {
          "components": [
            {
              "internalType": "string",
              "name": "name",
              "type": "string"
            },
            {
              "internalType": "uint256",
              "name": "id",
              "type": "uint256"
            },
            {
              "internalType": "uint256",
              "name": "dna",
              "type": "uint256"
            },
            {
              "internalType": "uint8",
              "name": "level",
              "type": "uint8"
            },
            {
              "internalType": "uint8",
              "name": "rarity",
              "type": "uint8"
            }
          ],
          "internalType": "struct LipToken.Lip[]",
          "name": "",
          "type": "tuple[]"
        }
      ],
      "stateMutability": "view",
      "type": "function",
      "constant": true
    },
    {
      "inputs": [],
      "name": "moneySmartContract",
      "outputs": [
        {
          "internalType": "uint256",
          "name": "",
          "type": "uint256"
        }
      ],
      "stateMutability": "view",
      "type": "function",
      "constant": true
    },
    {
      "inputs": [],
      "name": "addressSmartContract",
      "outputs": [
        {
          "internalType": "address",
          "name": "",
          "type": "address"
        }
      ],
      "stateMutability": "view",
      "type": "function",
      "constant": true
    },
    {
      "inputs": [
        {
          "internalType": "address",
          "name": "_owner",
          "type": "address"
        }
      ],
      "name": "getOwnerLips",
      "outputs": [
        {
          "components": [
            {
              "internalType": "string",
              "name": "name",
              "type": "string"
            },
            {
              "internalType": "uint256",
              "name": "id",
              "type": "uint256"
            },
            {
              "internalType": "uint256",
              "name": "dna",
              "type": "uint256"
            },
            {
              "internalType": "uint8",
              "name": "level",
              "type": "uint8"
            },
            {
              "internalType": "uint8",
              "name": "rarity",
              "type": "uint8"
            }
          ],
          "internalType": "struct LipToken.Lip[]",
          "name": "",
          "type": "tuple[]"
        }
      ],
      "stateMutability": "view",
      "type": "function",
      "constant": true
    },
    {
      "inputs": [
        {
          "internalType": "uint256",
          "name": "_lipId",
          "type": "uint256"
        }
      ],
      "name": "levelUp",
      "outputs": [],
      "stateMutability": "payable",
      "type": "function",
      "payable": true
    }
  ],
  "bytecode": "0x6080604052670de0b6b3a764000060085566b1a2bc2ec500006009553480156200002857600080fd5b5060405162002334380380620023348339810160408190526200004b916200024e565b81518290829062000064906000906020850190620000f5565b5080516200007a906001906020840190620000f5565b50505062000097620000916200009f60201b60201c565b620000a3565b505062000308565b3390565b600680546001600160a01b038381166001600160a01b0319831681179093556040519116919082907f8be0079c531659141344cd1fd0a4f28419497f9722a3daafe3b4186f6b6457e090600090a35050565b8280546200010390620002b5565b90600052602060002090601f01602090048101928262000127576000855562000172565b82601f106200014257805160ff191683800117855562000172565b8280016001018555821562000172579182015b828111156200017257825182559160200191906001019062000155565b506200018092915062000184565b5090565b5b8082111562000180576000815560010162000185565b600082601f830112620001ac578081fd5b81516001600160401b0380821115620001c957620001c9620002f2565b604051601f8301601f19908116603f01168101908282118183101715620001f457620001f4620002f2565b8160405283815260209250868385880101111562000210578485fd5b8491505b8382101562000233578582018301518183018401529082019062000214565b838211156200024457848385830101525b9695505050505050565b6000806040838503121562000261578182fd5b82516001600160401b038082111562000278578384fd5b62000286868387016200019b565b935060208501519150808211156200029c578283fd5b50620002ab858286016200019b565b9150509250929050565b600281046001821680620002ca57607f821691505b60208210811415620002ec57634e487b7160e01b600052602260045260246000fd5b50919050565b634e487b7160e01b600052604160045260246000fd5b61201c80620003186000396000f3fe6080604052600436106101665760003560e01c8063715018a6116100d157806399470ee61161008a578063c2f5168a11610064578063c2f5168a146103f4578063c87b56dd14610409578063e985e9c514610429578063f2fde38b1461044957610166565b806399470ee61461039f578063a22cb465146103b4578063b88d4fde146103d457610166565b8063715018a6146102fe57806383b5daf7146103135780638c0b9c54146103355780638da5cb5b146103555780639012c4a81461036a57806395d89b411461038a57610166565b80633ccfd60b116101235780633ccfd60b1461024557806342842e0e1461024d5780635ec163db1461026d5780636352211e1461029e578063698d640c146102be57806370a08231146102d157610166565b806301ffc9a71461016b57806306fdde03146101a1578063081812fc146101c3578063095ea7b3146101f05780630ce90ec21461021257806323b872dd14610225575b600080fd5b34801561017757600080fd5b5061018b6101863660046118c4565b610469565b6040516101989190611ac1565b60405180910390f35b3480156101ad57600080fd5b506101b66104b1565b6040516101989190611acc565b3480156101cf57600080fd5b506101e36101de366004611942565b610543565b60405161019891906119d5565b3480156101fc57600080fd5b5061021061020b36600461189b565b61056a565b005b610210610220366004611942565b61060b565b34801561023157600080fd5b506102106102403660046117ad565b61069f565b6102106106d7565b34801561025957600080fd5b506102106102683660046117ad565b610725565b34801561027957600080fd5b5061028d610288366004611942565b610740565b604051610198959493929190611adf565b3480156102aa57600080fd5b506101e36102b9366004611942565b610816565b6102106102cc3660046118fc565b61084b565b3480156102dd57600080fd5b506102f16102ec366004611761565b610866565b6040516101989190611e7e565b34801561030a57600080fd5b506102106108aa565b34801561031f57600080fd5b506103286108be565b6040516101989190611a26565b34801561034157600080fd5b50610328610350366004611761565b6109e4565b34801561036157600080fd5b506101e3610bd6565b34801561037657600080fd5b50610210610385366004611942565b610be5565b34801561039657600080fd5b506101b6610bf2565b3480156103ab57600080fd5b506102f1610c01565b3480156103c057600080fd5b506102106103cf366004611861565b610c05565b3480156103e057600080fd5b506102106103ef3660046117e8565b610c17565b34801561040057600080fd5b506101e3610c56565b34801561041557600080fd5b506101b6610424366004611942565b610c5a565b34801561043557600080fd5b5061018b61044436600461177b565b610cc1565b34801561045557600080fd5b50610210610464366004611761565b610cef565b60006001600160e01b031982166380ac58cd60e01b148061049a57506001600160e01b03198216635b5e139f60e01b145b806104a957506104a982610d26565b90505b919050565b6060600080546104c090611f04565b80601f01602080910402602001604051908101604052809291908181526020018280546104ec90611f04565b80156105395780601f1061050e57610100808354040283529160200191610539565b820191906000526020600020905b81548152906001019060200180831161051c57829003601f168201915b5050505050905090565b600061054e82610d3f565b506000908152600460205260409020546001600160a01b031690565b600061057582610816565b9050806001600160a01b0316836001600160a01b031614156105b25760405162461bcd60e51b81526004016105a990611def565b60405180910390fd5b806001600160a01b03166105c4610d64565b6001600160a01b031614806105e057506105e081610444610d64565b6105fc5760405162461bcd60e51b81526004016105a990611cf1565b6106068383610d68565b505050565b3361061582610816565b6001600160a01b03161461062857600080fd5b60095434101561063757600080fd5b6000600a828154811061065a57634e487b7160e01b600052603260045260246000fd5b6000918252602082206003600490920201908101805491935060ff9091169161068283611f5a565b91906101000a81548160ff021916908360ff160217905550505050565b6106b06106aa610d64565b82610dd6565b6106cc5760405162461bcd60e51b81526004016105a990611e30565b610606838383610e35565b6106df610f68565b60006106e9610bd6565b6040519091506001600160a01b038216904780156108fc02916000818181858888f19350505050158015610721573d6000803e3d6000fd5b5050565b61060683838360405180602001604052806000815250610c17565b600a818154811061075057600080fd5b906000526020600020906004020160009150905080600001805461077390611f04565b80601f016020809104026020016040519081016040528092919081815260200182805461079f90611f04565b80156107ec5780601f106107c1576101008083540402835291602001916107ec565b820191906000526020600020905b8154815290600101906020018083116107cf57829003601f168201915b50505050600183015460028401546003909401549293909290915060ff8082169161010090041685565b6000818152600260205260408120546001600160a01b0316806104a95760405162461bcd60e51b81526004016105a990611db8565b60085434101561085a57600080fd5b61086381610fa7565b50565b60006001600160a01b03821661088e5760405162461bcd60e51b81526004016105a990611ca8565b506001600160a01b031660009081526003602052604090205490565b6108b2610f68565b6108bc60006110fc565b565b6060600a805480602002602001604051908101604052809291908181526020016000905b828210156109db57838290600052602060002090600402016040518060a001604052908160008201805461091590611f04565b80601f016020809104026020016040519081016040528092919081815260200182805461094190611f04565b801561098e5780601f106109635761010080835404028352916020019161098e565b820191906000526020600020905b81548152906001019060200180831161097157829003601f168201915b50505091835250506001828101546020808401919091526002840154604084015260039093015460ff808216606085015261010090910416608090920191909152918352920191016108e2565b50505050905090565b606060006109f183610866565b67ffffffffffffffff811115610a1757634e487b7160e01b600052604160045260246000fd5b604051908082528060200260200182016040528015610a5057816020015b610a3d611606565b815260200190600190039081610a355790505b5090506000805b600a54811015610bcd57846001600160a01b0316610a7482610816565b6001600160a01b03161415610bbb57600a8181548110610aa457634e487b7160e01b600052603260045260246000fd5b90600052602060002090600402016040518060a0016040529081600082018054610acd90611f04565b80601f0160208091040260200160405190810160405280929190818152602001828054610af990611f04565b8015610b465780601f10610b1b57610100808354040283529160200191610b46565b820191906000526020600020905b815481529060010190602001808311610b2957829003601f168201915b5050509183525050600182015460208201526002820154604082015260039091015460ff8082166060840152610100909104166080909101528351849084908110610ba157634e487b7160e01b600052603260045260246000fd5b60200260200101819052508180610bb790611f3f565b9250505b80610bc581611f3f565b915050610a57565b50909392505050565b6006546001600160a01b031690565b610bed610f68565b600855565b6060600180546104c090611f04565b4790565b610721610c10610d64565b838361114e565b610c28610c22610d64565b83610dd6565b610c445760405162461bcd60e51b81526004016105a990611e30565b610c50848484846111f1565b50505050565b3090565b6060610c6582610d3f565b6000610c6f611224565b90506000815111610c8f5760405180602001604052806000815250610cba565b80610c9984611236565b604051602001610caa929190611986565b6040516020818303038152906040525b9392505050565b6001600160a01b03918216600090815260056020908152604080832093909416825291909152205460ff1690565b610cf7610f68565b6001600160a01b038116610d1d5760405162461bcd60e51b81526004016105a990611b6b565b610863816110fc565b6001600160e01b031981166301ffc9a760e01b14919050565b610d4881611351565b6108635760405162461bcd60e51b81526004016105a990611db8565b3390565b600081815260046020526040902080546001600160a01b0319166001600160a01b0384169081179091558190610d9d82610816565b6001600160a01b03167f8c5be1e5ebec7d5bd14f71427d1e84f3dd0314c0f7b2291e5b200ac8c7c3b92560405160405180910390a45050565b600080610de283610816565b9050806001600160a01b0316846001600160a01b03161480610e095750610e098185610cc1565b80610e2d5750836001600160a01b0316610e2284610543565b6001600160a01b0316145b949350505050565b826001600160a01b0316610e4882610816565b6001600160a01b031614610e6e5760405162461bcd60e51b81526004016105a990611bb1565b6001600160a01b038216610e945760405162461bcd60e51b81526004016105a990611c2d565b610e9f838383610606565b610eaa600082610d68565b6001600160a01b0383166000908152600360205260408120805460019290610ed3908490611ec1565b90915550506001600160a01b0382166000908152600360205260408120805460019290610f01908490611e95565b909155505060008181526002602052604080822080546001600160a01b0319166001600160a01b0386811691821790925591518493918716917fddf252ad1be2c89b69c2b068fc378daa952ba7f163c4a11628f55a4df523b3ef91a4610606838383610606565b610f70610d64565b6001600160a01b0316610f81610bd6565b6001600160a01b0316146108bc5760405162461bcd60e51b81526004016105a990611d83565b6000610fb3606461136e565b90506000610fc7662386f26fc1000061136e565b6040805160a08101825285815260075460208083019190915291810183905260016060820181905260ff86166080830152600a80549182018155600052815180519495509193849360049092027fc65a7bb8d6351c1cf70c95a316cc6a92839c986682d98bc35f958f4883f9d2a8019261104592849291019061163b565b50602082015160018201556040820151600282015560608201516003909101805460809093015160ff9081166101000261ff00199190931660ff19909416939093179290921617905560075461109c9033906113a8565b336001600160a01b03167f24d2d558f98bdd9d21339e119fc0b03e213c7d05affd838ac2ee136d90e3bbeb600754846040516110d9929190611e87565b60405180910390a2600780549060006110f183611f3f565b919050555050505050565b600680546001600160a01b038381166001600160a01b0319831681179093556040519116919082907f8be0079c531659141344cd1fd0a4f28419497f9722a3daafe3b4186f6b6457e090600090a35050565b816001600160a01b0316836001600160a01b031614156111805760405162461bcd60e51b81526004016105a990611c71565b6001600160a01b0383811660008181526005602090815260408083209487168084529490915290819020805460ff1916851515179055517f17307eab39ab6107e8899845ad3d59bd9653f200f220920489ca2b5937696c31906111e4908590611ac1565b60405180910390a3505050565b6111fc848484610e35565b611208848484846113c2565b610c505760405162461bcd60e51b81526004016105a990611b19565b60408051602081019091526000815290565b60608161125b57506040805180820190915260018152600360fc1b60208201526104ac565b8160005b8115611285578061126f81611f3f565b915061127e9050600a83611ead565b915061125f565b60008167ffffffffffffffff8111156112ae57634e487b7160e01b600052604160045260246000fd5b6040519080825280601f01601f1916602001820160405280156112d8576020820181803683370190505b5090505b8415610e2d576112ed600183611ec1565b91506112fa600a86611f7a565b611305906030611e95565b60f81b81838151811061132857634e487b7160e01b600052603260045260246000fd5b60200101906001600160f81b031916908160001a90535061134a600a86611ead565b94506112dc565b6000908152600260205260409020546001600160a01b0316151590565b60008042336040516020016113849291906119b5565b60408051601f1981840301815291905280516020909101209050610cba8382611f7a565b6107218282604051806020016040528060008152506114dd565b60006113d6846001600160a01b0316611510565b156114d257836001600160a01b031663150b7a026113f2610d64565b8786866040518563ffffffff1660e01b815260040161141494939291906119e9565b602060405180830381600087803b15801561142e57600080fd5b505af192505050801561145e575060408051601f3d908101601f1916820190925261145b918101906118e0565b60015b6114b8573d80801561148c576040519150601f19603f3d011682016040523d82523d6000602084013e611491565b606091505b5080516114b05760405162461bcd60e51b81526004016105a990611b19565b805181602001fd5b6001600160e01b031916630a85bd0160e11b149050610e2d565b506001949350505050565b6114e7838361151f565b6114f460008484846113c2565b6106065760405162461bcd60e51b81526004016105a990611b19565b6001600160a01b03163b151590565b6001600160a01b0382166115455760405162461bcd60e51b81526004016105a990611d4e565b61154e81611351565b1561156b5760405162461bcd60e51b81526004016105a990611bf6565b61157760008383610606565b6001600160a01b03821660009081526003602052604081208054600192906115a0908490611e95565b909155505060008181526002602052604080822080546001600160a01b0319166001600160a01b03861690811790915590518392907fddf252ad1be2c89b69c2b068fc378daa952ba7f163c4a11628f55a4df523b3ef908290a461072160008383610606565b6040518060a00160405280606081526020016000815260200160008152602001600060ff168152602001600060ff1681525090565b82805461164790611f04565b90600052602060002090601f01602090048101928261166957600085556116af565b82601f1061168257805160ff19168380011785556116af565b828001600101855582156116af579182015b828111156116af578251825591602001919060010190611694565b506116bb9291506116bf565b5090565b5b808211156116bb57600081556001016116c0565b600067ffffffffffffffff808411156116ef576116ef611fba565b604051601f8501601f19908116603f0116810190828211818310171561171757611717611fba565b8160405280935085815286868601111561173057600080fd5b858560208301376000602087830101525050509392505050565b80356001600160a01b03811681146104ac57600080fd5b600060208284031215611772578081fd5b610cba8261174a565b6000806040838503121561178d578081fd5b6117968361174a565b91506117a46020840161174a565b90509250929050565b6000806000606084860312156117c1578081fd5b6117ca8461174a565b92506117d86020850161174a565b9150604084013590509250925092565b600080600080608085870312156117fd578081fd5b6118068561174a565b93506118146020860161174a565b925060408501359150606085013567ffffffffffffffff811115611836578182fd5b8501601f81018713611846578182fd5b611855878235602084016116d4565b91505092959194509250565b60008060408385031215611873578182fd5b61187c8361174a565b915060208301358015158114611890578182fd5b809150509250929050565b600080604083850312156118ad578182fd5b6118b68361174a565b946020939093013593505050565b6000602082840312156118d5578081fd5b8135610cba81611fd0565b6000602082840312156118f1578081fd5b8151610cba81611fd0565b60006020828403121561190d578081fd5b813567ffffffffffffffff811115611923578182fd5b8201601f81018413611933578182fd5b610e2d848235602084016116d4565b600060208284031215611953578081fd5b5035919050565b60008151808452611972816020860160208601611ed8565b601f01601f19169290920160200192915050565b60008351611998818460208801611ed8565b8351908301906119ac818360208801611ed8565b01949350505050565b91825260601b6bffffffffffffffffffffffff1916602082015260340190565b6001600160a01b0391909116815260200190565b6001600160a01b0385811682528416602082015260408101839052608060608201819052600090611a1c9083018461195a565b9695505050505050565b60208082528251828201819052600091906040908185019080840286018301878501865b83811015611ab357603f19898403018552815160a08151818652611a708287018261195a565b838b0151878c0152898401518a88015260608085015160ff9081169189019190915260809485015116939096019290925250509386019390860190600101611a4a565b509098975050505050505050565b901515815260200190565b600060208252610cba602083018461195a565b600060a08252611af260a083018861195a565b602083019690965250604081019390935260ff918216606084015216608090910152919050565b60208082526032908201527f4552433732313a207472616e7366657220746f206e6f6e20455243373231526560408201527131b2b4bb32b91034b6b83632b6b2b73a32b960711b606082015260800190565b60208082526026908201527f4f776e61626c653a206e6577206f776e657220697320746865207a65726f206160408201526564647265737360d01b606082015260800190565b60208082526025908201527f4552433732313a207472616e736665722066726f6d20696e636f72726563742060408201526437bbb732b960d91b606082015260800190565b6020808252601c908201527f4552433732313a20746f6b656e20616c7265616479206d696e74656400000000604082015260600190565b60208082526024908201527f4552433732313a207472616e7366657220746f20746865207a65726f206164646040820152637265737360e01b606082015260800190565b60208082526019908201527f4552433732313a20617070726f766520746f2063616c6c657200000000000000604082015260600190565b60208082526029908201527f4552433732313a2061646472657373207a65726f206973206e6f7420612076616040820152683634b21037bbb732b960b91b606082015260800190565b6020808252603e908201527f4552433732313a20617070726f76652063616c6c6572206973206e6f7420746f60408201527f6b656e206f776e6572206e6f7220617070726f76656420666f7220616c6c0000606082015260800190565b6020808252818101527f4552433732313a206d696e7420746f20746865207a65726f2061646472657373604082015260600190565b6020808252818101527f4f776e61626c653a2063616c6c6572206973206e6f7420746865206f776e6572604082015260600190565b60208082526018908201527f4552433732313a20696e76616c696420746f6b656e2049440000000000000000604082015260600190565b60208082526021908201527f4552433732313a20617070726f76616c20746f2063757272656e74206f776e656040820152603960f91b606082015260800190565b6020808252602e908201527f4552433732313a2063616c6c6572206973206e6f7420746f6b656e206f776e6560408201526d1c881b9bdc88185c1c1c9bdd995960921b606082015260800190565b90815260200190565b918252602082015260400190565b60008219821115611ea857611ea8611f8e565b500190565b600082611ebc57611ebc611fa4565b500490565b600082821015611ed357611ed3611f8e565b500390565b60005b83811015611ef3578181015183820152602001611edb565b83811115610c505750506000910152565b600281046001821680611f1857607f821691505b60208210811415611f3957634e487b7160e01b600052602260045260246000fd5b50919050565b6000600019821415611f5357611f53611f8e565b5060010190565b600060ff821660ff811415611f7157611f71611f8e565b60010192915050565b600082611f8957611f89611fa4565b500690565b634e487b7160e01b600052601160045260246000fd5b634e487b7160e01b600052601260045260246000fd5b634e487b7160e01b600052604160045260246000fd5b6001600160e01b03198116811461086357600080fdfea2646970667358221220c21f68206ab03fc489b5921ae9e83139c8d71c5ef34cd7173dffe92c0ddc2dea64736f6c63430008010033",
  "immutableReferences": {},
  "source": "// SPDX-License-Identifier: MIT\r\npragma solidity ^0.8.0;\r\n\r\n// Importacion de los Smart Contract: ERC721 y Ownable.sol\r\nimport \"@openzeppelin/contracts/token/ERC721/ERC721.sol\";\r\nimport \"@openzeppelin/contracts/access/Ownable.sol\";\r\n\r\n// Creacion del Smart Contrac para el Videojuego NFT\r\ncontract LipToken is ERC721, Ownable {\r\n\r\n    // Constructor de mi Smart Contract\r\n    constructor (string memory _name, string memory _symbol)\r\n    ERC721(_name, _symbol) {}\r\n    \r\n    //==================================================\r\n    // Declaraciones iniciales\r\n\r\n    // Contador de tokens NFT\r\n    uint256 COUNTER;\r\n    // Fijacion en el precio de los Token NFT\r\n    uint256 fee = 1 ether;\r\n    uint256 fee_level = 0.05 ether;\r\n    // Estructura de datos con las propiedades del lip (labio)\r\n    struct Lip {\r\n        string name;\r\n        uint256 id;\r\n        uint256 dna;\r\n        uint8 level;\r\n        uint8 rarity;\r\n    }\r\n\r\n    // Estructura de almacenamiento\r\n    Lip [] public lips;\r\n\r\n    // Declaracion de un evento\r\n    event NewLip(address indexed owner, uint256 id, uint256 dna);\r\n\r\n    //==================================================\r\n    // Funciones de ayuda\r\n\r\n    // Asignacion de un numero aleatorio\r\n    function _createRandomNum(uint256 _mod) internal view returns (uint256) {\r\n        uint256 randomNum = uint256(keccak256(abi.encodePacked(block.timestamp, msg.sender)));\r\n        return randomNum % _mod;\r\n    }\r\n\r\n    // Actualizacion del precio del Token NFT ** onlyOwner ya esta declarado en Ownable.sol ***\r\n    function updateFee(uint256 _fee) external onlyOwner {\r\n        fee = _fee;\r\n    }\r\n\r\n    // Extraccion de los ethers del Smart Contract hacia el Owner *** owner() viene de Ownable.sol ***\r\n    function withdraw() external payable onlyOwner {\r\n        address payable _owner = payable(owner());\r\n        _owner.transfer(address(this).balance);\r\n    }\r\n\r\n    // Creacion del Token NFT (lip)\r\n    function _createLip(string memory _name) internal {\r\n        uint8 randRarity = uint8(_createRandomNum(100)); // El modulo 100 devuelve un numero de 2 digitos\r\n        uint randDna = _createRandomNum(10**16); // El modulo 10**16 devuelve un numero de 16 digitos\r\n        Lip memory newLip = Lip(_name, COUNTER, randDna, 1, randRarity);\r\n        lips.push(newLip);\r\n        _safeMint(msg.sender, COUNTER); // _safeMint viene de ERC721.sol\r\n        emit NewLip(msg.sender, COUNTER, randDna);\r\n        COUNTER++;\r\n    }\r\n\r\n    //==================================================\r\n    // Creacion de un labio aleatorio\r\n    function createRandomLip(string memory _name) public payable {\r\n        require(msg.value >= fee);\r\n        _createLip(_name);\r\n    }\r\n\r\n    // Obtencion de todos los lips\r\n    function getLips() public view returns (Lip [] memory){\r\n        return lips;\r\n    }\r\n\r\n    // Visualizar el balance del Smart Contract\r\n    function moneySmartContract() public view returns (uint256){\r\n        return address(this).balance;\r\n    }\r\n\r\n    // Visualizar la direccion del Smart Contract\r\n    function addressSmartContract() public view returns (address) {\r\n        return address(this);\r\n    }\r\n\r\n    // Obtencion de los Tokens NFT usuario\r\n    function getOwnerLips(address _owner) public view returns (Lip [] memory) {\r\n        Lip [] memory result = new Lip [] (balanceOf(_owner));\r\n        uint256 counter = 0;\r\n        for (uint256 i=0; i<lips.length; i++) {\r\n            if (ownerOf(i) == _owner) {\r\n                result[counter] = lips[i];\r\n                counter ++;\r\n            }\r\n        }\r\n        return result;\r\n    }\r\n\r\n    // Subir de nivel los Tokens NFT\r\n    function levelUp(uint256 _lipId) public payable {\r\n        require(ownerOf(_lipId) == msg.sender);\r\n        require(msg.value >= fee_level);\r\n        Lip storage lip = lips[_lipId];\r\n        lip.level++;\r\n    }\r\n\r\n}",
  "sourcePath": "D:\\Rober\\Curso Videojuego NFT 2\\nft\\contracts\\LipToken.sol",
  "compiler": {
    "name": "solc",
    "version": "0.8.1+commit.df193b15.Emscripten.clang"
  },
  "schemaVersion": "3.4.10",
  "updatedAt": "2022-11-04T21:05:56.977Z",
  "networkType": "ethereum",
  "devdoc": {
    "kind": "dev",
    "methods": {
      "approve(address,uint256)": {
        "details": "See {IERC721-approve}."
      },
      "balanceOf(address)": {
        "details": "See {IERC721-balanceOf}."
      },
      "getApproved(uint256)": {
        "details": "See {IERC721-getApproved}."
      },
      "isApprovedForAll(address,address)": {
        "details": "See {IERC721-isApprovedForAll}."
      },
      "name()": {
        "details": "See {IERC721Metadata-name}."
      },
      "owner()": {
        "details": "Returns the address of the current owner."
      },
      "ownerOf(uint256)": {
        "details": "See {IERC721-ownerOf}."
      },
      "renounceOwnership()": {
        "details": "Leaves the contract without owner. It will not be possible to call `onlyOwner` functions anymore. Can only be called by the current owner. NOTE: Renouncing ownership will leave the contract without an owner, thereby removing any functionality that is only available to the owner."
      },
      "safeTransferFrom(address,address,uint256)": {
        "details": "See {IERC721-safeTransferFrom}."
      },
      "safeTransferFrom(address,address,uint256,bytes)": {
        "details": "See {IERC721-safeTransferFrom}."
      },
      "setApprovalForAll(address,bool)": {
        "details": "See {IERC721-setApprovalForAll}."
      },
      "supportsInterface(bytes4)": {
        "details": "See {IERC165-supportsInterface}."
      },
      "symbol()": {
        "details": "See {IERC721Metadata-symbol}."
      },
      "tokenURI(uint256)": {
        "details": "See {IERC721Metadata-tokenURI}."
      },
      "transferFrom(address,address,uint256)": {
        "details": "See {IERC721-transferFrom}."
      },
      "transferOwnership(address)": {
        "details": "Transfers ownership of the contract to a new account (`newOwner`). Can only be called by the current owner."
      }
    },
    "version": 1
  },
  "userdoc": {
    "kind": "user",
    "methods": {},
    "version": 1
  }
}